:100000000C9448090C9470090C9470090C947009B4
:100010000C9470090C9470090C9470090C9470097C
:100020000C9470090C94F42E0C9470090C947009C3
:100030000C9470090C941F2F0C9470090C94700987
:100040000C94AA2E0C9470090C94782E0C94522EB9
:100050000C9470090C9470090C9470090C9470093C
:100060000C9470090C947009AED580A83FD3004061
:100070008D142002A1C8DA12817FD9F1DB40A4A639
:10008000AF200052756E20636F756E7465723A0012
:1000900054797065202768656C702720746F20671D
:1000A000657420737570706F7274656420636F6D12
:1000B0006D616E64206C697374200057656C636FAA
:1000C0006D6520746F20537465706C6F616420439C
:1000D0006F6D6D61646E204C696E6520496E74654C
:1000E00072666163652028434C49293A200020004C
:1000F00053746570204C6F61643A2076322C207303
:100100006F6674776172652076657273696F6E3A97
:10011000200056697374656F6E2C20486172647795
:10012000617265205465616D2C20536F6669612C86
:10013000204D6172636820323032302000535720E6
:100140007665723A2020004D61726368202020207D
:1001500020323032300056697374656F6E0053651B
:100160007269616C2073706565643A2000202056C6
:10017000322E3020200053746570204C6F61643A39
:1001800020002A0053746172743A20005072652D69
:100190004C6F6164207265733A00537465702D4C26
:1001A0006F6164207265733A20005600555F70736A
:1001B0003A004E5F7265703A00545F6F663A0054C1
:1001C0005F6F6E3A00546F20456469742020536558
:1001D0007474696E67733A2020203C486F6C643EEB
:1001E0002020202D2D2D2D2D3E2020200000000030
:1001F00000000000000000000000000053544152C5
:10020000543A20203C436C69636B3E202020204EF2
:100210002052756E733A00000000000000000000DC
:1002200000000000000000000000000000000000CE
:1002300000000020003B20566C6F61645B565D3D02
:1002400020003B204E72756E73203D20003B204EF7
:100250006379636C6573203D20003B204F464674F4
:10026000696D655B75735D3D20004F4E74696D650A
:100270005B75735D3D20002000200020566C6F618F
:1002800064205B565D3D200020007C2D2D2D2D2D02
:100290002D2D2D2D2D2D2D2D2D2D2D2D2D2D2D2D8E
:1002A0002D2D2D2D2D2D2D2D2D2D2D2D2D2D2D2D7E
:1002B0002D2D2D2D2D2D2D2D2D2D2D2D2D2D2D2D6E
:1002C0002D2D2D2D2D2D2D2D2D2D2D2D2D2D2D2D5E
:1002D0002D7C007C20453A7C20747970653A20683A
:1002E000656C70202020202020202020202020202D
:1002F00020202020202020202020202020202020FE
:1003000020202020202020202020202020202020ED
:10031000202020202020202020207C007C2038202D
:100320007C2068656C7020207C20446973706C614F
:10033000792074686973206D61737361676520202B
:1003400020202020202020202020202020202020AD
:10035000202020202020202020202020202020209D
:100360002020207C007C2D2D2D2D2D2D2D2D2D2D73
:100370002D2D2D2D2D2D2D2D2D2D2D2D2D2D2D2DAD
:100380002D2D2D2D2D2D2D2D2D2D2D2D2D2D2D2D9D
:100390002D2D2D2D2D2D2D2D2D2D2D2D2D2D2D2D8D
:1003A0002D2D2D2D2D2D2D2D2D2D2D2D7C007C2019
:1003B000453A7C20747970653A20676574766C6F75
:1003C00061642020202020202020202020202020A8
:1003D000202020202020202020202020202020201D
:1003E000202020202020202020202020202020200D
:1003F00020202020207C007C2037207C20566C6F21
:100400006164207C52657475726E73206D656173D2
:100410007572656420766F6C74616765206F6E20FD
:100420006C6F616420636F6E6E6563746F72202001
:1004300020202020202020202020202020207C0080
:100440007C2D2D2D2D2D2D2D2D2D2D2D2D2D2D2D8D
:100450002D2D2D2D2D2D2D2D2D2D2D2D2D2D2D2DCC
:100460002D2D2D2D2D2D2D2D2D2D2D2D2D2D2D2DBC
:100470002D2D2D2D2D2D2D2D2D2D2D2D2D2D2D2DAC
:100480002D2D2D2D2D2D2D7C007C20453A7C20748A
:100490007970653A20676574737461747573202090
:1004A000202020202020202020202020202020204C
:1004B000202020202020202020202020202020203C
:1004C000202020202020202020202020202020202C
:1004D0007C007C2036207C207374617475737C52A0
:1004E000657475726E732063757272656E742067C1
:1004F000656E657261746F722073657474696E677E
:1005000020616E64206C6F616420766F6C7461672B
:100510006520202020202020207C007C2D2D2D2DCA
:100520002D2D2D2D2D2D2D2D2D2D2D2D2D2D2D2DFB
:100530002D2D2D2D2D2D2D2D2D2D2D2D2D2D2D2DEB
:100540002D2D2D2D2D2D2D2D2D2D2D2D2D2D2D2DDB
:100550002D2D2D2D2D2D2D2D2D2D2D2D2D2D2D2DCB
:100560002D2D7C007C20453A7C206578616D706C77
:10057000653A207365746E726570203230205B4E70
:100580007265702076616C756520696E2072616E8F
:1005900067652031202D2035303020205D2020203F
:1005A00020202020202020202020207C007C202AA9
:1005B000207C20747970653A207365746E72657062
:1005C000203C76616C2074696D65733E3B206578D4
:1005D000616D706C653A207365746E72657020325F
:1005E0003020205B312D3530305D20202020202030
:1005F000202020207C007C2035207C207365742006
:100600004E726570207C20536574206E75626D6536
:1006100072206F662070756C73657320746F206232
:1006200065206765656E657261746564206F6E2014
:1006300061207369676E6C652072756E207C007C2A
:100640002D2D2D2D2D2D2D2D2D2D2D2D2D2D2D2DDA
:100650002D2D2D2D2D2D2D2D2D2D2D2D2D2D2D2DCA
:100660002D2D2D2D2D2D2D2D2D2D2D2D2D2D2D2DBA
:100670002D2D2D2D2D2D2D2D2D2D2D2D2D2D2D2DAA
:100680002D2D2D2D2D2D7C007C20453A7C2065784C
:10069000616D706C653A207365746F666674696D20
:1006A00065203530305B4F46462074696D65207695
:1006B000616C756520696E2072616E6765203130EE
:1006C00030207573202D20363530302075735D7CD9
:1006D000007C202A207C20747970653A2073657430
:1006E0006F666674696D65203C76616C2075733E3B
:1006F0003B206578616D706C653A207365746F6638
:100700006674696D6520353030205B3130302D36B0
:100710003530302075735D207C007C2034207C20B7
:10072000736574204F46462074696D65207C2053A4
:10073000657420746865204F46462070756C73653B
:10074000206475726174696F6E2074696D652C2008
:10075000696E20757320202020202020202020205A
:10076000207C007C2D2D2D2D2D2D2D2D2D2D2D2D55
:100770002D2D2D2D2D2D2D2D2D2D2D2D2D2D2D2DA9
:100780002D2D2D2D2D2D2D2D2D2D2D2D2D2D2D2D99
:100790002D2D2D2D2D2D2D2D2D2D2D2D2D2D2D2D89
:1007A0002D2D2D2D2D2D2D2D2D2D7C007C20453AF0
:1007B0007C206578616D706C653A207365746F6E2E
:1007C00074696D6520323530205B4F6E2074696D21
:1007D000652076616C756520696E2072616E676553
:1007E00020313030207573202D2036353030207583
:1007F000735D207C007C202A207C20747970653A0F
:10080000207365746F6E74696D65203C76616C2031
:1008100075733E3B206578616D706C653A20736539
:10082000746F6E74696D6520323530205B31303005
:100830002D363530302075735D2020207C007C20E3
:1008400033207C20736574204F4E2074696D6520C1
:100850007C2053657420746865204F4E2070756C41
:100860007365206475726174696F6E2074696D655B
:100870002C20696E2075732020202020202020202D
:1008800020202020207C007C2D2D2D2D2D2D2D2D68
:100890002D2D2D2D2D2D2D2D2D2D2D2D2D2D2D2D88
:1008A0002D2D2D2D2D2D2D2D2D2D2D2D2D2D2D2D78
:1008B0002D2D2D2D2D2D2D2D2D2D2D2D2D2D2D2D68
:1008C0002D2D2D2D2D2D2D2D2D2D2D2D2D2D7C0036
:1008D0007C20453A7C206578616D706C653A2073A8
:1008E0006574202D6F6E74696D6520323530202D52
:1008F0006F666674696D6520333030202D6E7265C9
:100900007020352020202020202020202020202082
:10091000202020202020207C007C202A207C204FAA
:100920006E2F4F66662074696D652076616C756503
:1009300020696E2072616E676520313030207573DA
:10094000202D20363530302075732C204E72657086
:1009500020696E2072616E676520312D3530302040
:100960007C007C202A207C20747970653A20736595
:1009700074202D6F6E74696D65203C76616C2075F6
:10098000733E202D6F666674696D65203C76616CE0
:100990002075733E202D6E726570203C76616C3E32
:1009A0002020202020202020207C007C2032207C41
:1009B000207365742020207C20536574757020702E
:1009C000756C73652067656E657261746F722070F7
:1009D0006172616D6574657273204F4E2074696D2C
:1009E000652C204F66662074696D652C204E7265FB
:1009F00070207C007C2D2D2D2D2D2D2D2D2D2D2D80
:100A00002D2D2D2D2D2D2D2D2D2D2D2D2D2D2D2D16
:100A10002D2D2D2D2D2D2D2D2D2D2D2D2D2D2D2D06
:100A20002D2D2D2D2D2D2D2D2D2D2D2D2D2D2D2DF6
:100A30002D2D2D2D2D2D2D2D2D2D2D7C007C20456A
:100A40003A7C206578616D706C653A2073746172D0
:100A50007420313030202020202020202020202011
:100A60002020202020202020202020202020202086
:100A70002020202020202020202020202020202076
:100A8000202020207C007C202A207C207479706526
:100A90003A207374617274203C64656C61795F768E
:100AA000616C75653D302D353030306D733E3B20C7
:100AB0006578616D706C653A207374617274203171
:100AC000303020202020202020202020207C007C6E
:100AD000202A207C20747970653A207374617274C6
:100AE00020202D2027737461727420696D6D6964F4
:100AF0006561746C79272020202020202020202070
:100B000020202020202020202020202020202020E5
:100B10002020202020207C007C2031207C20737429
:100B2000617274207C2053746172742067656E65F5
:100B3000726174696E672C207472696767657220D0
:100B400072756E20627574746F6E2076696120759F
:100B50006172742020202020202020202020207C52
:100B6000007C2D2D2D2D2D2D2D2D2D2D2D2D2D2D93
:100B70002D2D537570706F7274656420636F6D6D89
:100B8000616E64206C6973743A2D2D2D2D2D2D2DE1
:100B90002D2D2D2D2D2D2D2D2D2D2D2D2D2D2D2D85
:100BA0002D2D2D2D2D2D2D2D7C006E7265707661D5
:100BB0006C7565006F666674696D6576616C7565E8
:100BC000006F6E74696D6576616C75650064656C47
:100BD0006179006E726570006F666674696D65009C
:100BE0006F6E74696D65002320004E4F542044657C
:100BF00074656374656400436F6E6E6563746564E9
:100C0000004E4F5420446574656374656400436FFF
:100C10006E6E656374656400546F20657869742036
:100C20004D656E753A2020486F6C6420456E636F89
:100C300064657220202D2D3E2020202020200000E1
:100C40000000000000000000000000000000005450
:100C50006F20676F204E6578743A20202020436C07
:100C600069636B20456E636F64657220202D2D3E95
:100C700020202020200000000000000000000000D4
:100C80000000000000004D696E2076616C3A203152
:100C90003030202075732020202020204D617820C6
:100CA00076616C3A20363520206D7320202020207C
:100CB000202000000000000000000000005B2B5D11
:100CC000206F206F2020205B456469745D3A2020EE
:100CD000204F4E2020202074696D65202020202088
:100CE00020202020202020202000000000000000E4
:100CF000000000004D696E2076616C3A2031303082
:100D0000202075732020202020204D6178207661DE
:100D10006C3A20363520206D7320202020202020A2
:100D200020000000000000000000006F205B2B5D31
:100D3000206F2020205B456469745D3A2020204F9D
:100D400046462020202074696D6520202020202028
:100D500020202020202020000000000000000000B3
:100D600000004D696E2076616C3A203120202020F1
:100D700020202020202020204D61782076616C3AB0
:100D8000203530302020202020202020202020004E
:100D90000000000000000000006F206F205B2B5D52
:100DA00020205B456469745D3A206E756D626572E2
:100DB000206F662070756C736573202020202020C2
:100DC0002020202020200000000000000000000063
:100DD0006D6178006D696E0074696D6573006D6199
:100DE00078006D696E00757300545F6F663A006D30
:100DF0006178006D696E00757300556E636C6F737A
:100E000065642071756F7465004D697373696E67F1
:100E100020617267756D656E742076616C75650012
:100E20004D697373696E6720617267756D656E7465
:100E300000556E6B6E6F776E20617267756D656EB3
:100E40007400436F6D6D616E64206E6F7420666F09
:100E5000756E64004E6F206572726F7200456D7022
:100E6000747920696E707574004E554C4C20506F2B
:100E7000696E74657200206174202700270020616C
:100E80007420617267756D656E74202700270020DD
:100E9000617420636F6D6D616E64202700270022EE
:100EA0003F0044696420796F75206D65616E202272
:100EB000004552524F523A200000030C0F30333C91
:100EC0003FC0C3CCCFF0F3FCFF000000002400279C
:100ED000002A0000000000250028002B0000000070
:100EE000002300260029000404040404040404026E
:100EF00002020202020303030303030102040810B7
:100F00002040800102040810200102040810200083
:100F100000000800020100000304070000000000B8
:100F2000000000446973706C61792068656C702002
:100F30006D6173736167652C20636F6D6D616E64A5
:100F4000206C69737420616E6420617267756D65D1
:100F50006E7473200053657420746865206E75622A
:100F60006D6572206F662070756C73657320746F89
:100F7000206265206765656E657261746564206FC7
:100F80006E2061207369676E6C652072756E005308
:100F9000657420746865204F46462070756C7365D3
:100FA000206475726174696F6E2074696D652C20A0
:100FB000696E2075730053657420746865204F4E08
:100FC0002070756C7365206475726174696F6E2032
:100FD00074696D652C20696E2075730073657420CB
:100FE0007468652067656E657261746F72207661E2
:100FF0006C756573206C696B65204F6E2F4F66664C
:101000002074696D652C206E756D62657220707537
:101010006C7365732000676574766C6F6164207211
:10102000657475726E7320766F6C74616765206D80
:1010300065617375726564206F6E20696E7075747A
:10104000206F6620737465706C6F616420626F61DD
:10105000726400676574737461747573207265746B
:1010600075726E73207374617465206F662076618B
:10107000726961626C6573206C696B65204F6E2FBD
:101080004F66662074696D652C206C6F61642076F4
:101090006F6C746167652C206574632E2E2E2000A2
:1010A00053746172742067656E65726174696E67EE
:1010B0002C20747269676765722072756E20627584
:1010C00074746F6E20766961207561727400099D79
:1010D000050720600101030505050501020205035E
:1010E00001020103040204040404040404040101D1
:1010F00003030304050404040404040404030405B2
:10110000030505050405040403040505050505029A
:10111000030203030104040404040404040103049B
:101120000105040404040404040403050304040383
:101130000103050000BE0E000E28FE28FE284854BC
:10114000FE5424462610C8C46C92AA44A0063C4211
:10115000423C0054385400103810C0101040C038C1
:10116000067C82827C04FEC4A2928C8292926C30B5
:101170002824FE4E9292727894926002E2120E6CD3
:1011800092926C0C92523C6C6C1028442828284493
:10119000281004A2120C6492F2827CFC2222FCFE33
:1011A00092926C7C828244FE82827CFE929282FECB
:1011B0001212027C82A264FE1010FE82FE82408027
:1011C000807EFE10284482FE8080FE040804FEFE1D
:1011D000081020FE7C8282827CFE12120C7C82A28D
:1011E00042BCFE32528C4C92926402FE027E80809F
:1011F0007E3E4080403EFE403040FEC6281028C65D
:101200000608F00806C2A2928A86FE820638C082CC
:10121000FE0402048080800640A8A8707E9088703A
:10122000708888507088907E70A8A83010FC1204D6
:1012300010A8A878FE1008F0FA40807AFE205088A6
:10124000FEF8083008F0F81008F070888870F82868
:101250002810102828F8F810081090A8A848087E30
:101260008840788040F87880787880608078D820CE
:10127000D818A0A078C8A8A898106C82EE826C102C
:10128000100810201068001980400000462F6034BC
:1012900011241FBECFEFD8E0DEBFCDBF23E0A6ED07
:1012A000B1E001C01D92AC3CB207E1F711E0A0E053
:1012B000B1E0ECE8F3E702C005900D92A63DB1075E
:1012C000D9F719E0C7E4D9E004C02197FE010E94D4
:1012D000BC37C634D107C9F70E9474300C94B939B1
:1012E0000C9400000895EF92FF920F931F93CF93F9
:1012F000DF938C017B01D0E0C0E0F701EC0FFD1F14
:101300006491662361F0D801ED91FC910190F08128
:10131000E02DC8010995892B11F02196EECFCE0161
:10132000DF91CF911F910F91FF90EF900895AF92B1
:10133000BF92CF92DF92EF92FF920F931F93CF93C2
:10134000DF936C017B018B01040F151FEB015E0124
:10135000AE18BF08C017D10759F06991D601ED91B9
:10136000FC910190F081E02DC6010995892B79F758
:10137000C501DF91CF911F910F91FF90EF90DF900A
:10138000CF90BF90AF900895FC01538D448D252FD1
:1013900030E0842F90E0821B930B541710F0CF960F
:1013A000089501970895FC01918D828D981761F041
:1013B000A28DAE0FBF2FB11D5D968C91928D9F5F58
:1013C0009F73928F90E008958FEF9FEF0895FC0137
:1013D000918D828D981731F0828DE80FF11D858DEA
:1013E00090E008958FEF9FEF0895FC01918D228D7D
:1013F000892F90E0805C9F4F821B91098F73992702
:1014000008958AE692E00E94F50921E0892B09F40B
:1014100020E0822F089580E090E0892B29F00E943F
:10142000010A81110C9400000895FC01A48DA80FFD
:10143000B92FB11DA35ABF4F2C91848D90E0019616
:101440008F739927848FA689B7892C93A089B18936
:101450008C91837080648C93938D848D981306C0D7
:101460000288F389E02D80818F7D80830895EF923B
:10147000FF920F931F93CF93DF93EC0181E0888F4E
:101480009B8D8C8D98131AC0E889F989808185FF1E
:1014900015C09FB7F894EE89FF896083E889F989C0
:1014A00080818370806480839FBF81E090E0DF91C2
:1014B000CF911F910F91FF90EF900895F62E0B8D15
:1014C00010E00F5F1F4F0F731127E02E8C8D8E11D0
:1014D0000CC00FB607FCFACFE889F989808185FF37
:1014E000F5CFCE010E94150AF1CFEB8DEC0FFD2F49
:1014F000F11DE35AFF4FF0829FB7F8940B8FEA89F2
:10150000FB8980818062CFCFCF93DF93EC01888D00
:101510008823B9F0AA89BB89E889F9898C9185FD6E
:1015200003C0808186FD0DC00FB607FCF7CF8C91FC
:1015300085FFF2CF808185FFEDCFCE010E94150A95
:10154000E9CFDF91CF910895833081F028F4813085
:1015500099F08230A9F008958730A9F08830C9F059
:101560008430B1F4809180008F7D03C08091800031
:101570008F7780938000089584B58F7784BD089518
:1015800084B58F7DFBCF8091B0008F778093B000C2
:1015900008958091B0008F7DF9CFCF93DF93282FEE
:1015A00030E0F901E15FF04F8491F901E550F14F2E
:1015B000D491F901E951F14FC491CC23A1F08111EB
:1015C0000E94A40AEC2FF0E0EE0FFF1FE352F14F50
:1015D000A591B491EC91ED2381E090E009F480E0D5
:1015E000DF91CF91089580E090E0FACF1F93CF93E1
:1015F000DF93282F30E0F901E15FF04F8491F9018A
:10160000E550F14FD491F901E951F14FC491CC2348
:10161000A9F0162F81110E94A40AEC2FF0E0EE0F22
:10162000FF1FED52F14FA591B4918FB7F894EC9153
:10163000111108C0D095DE23DC938FBFDF91CF91CD
:101640001F910895DE2BF8CFCF93DF9390E0FC013C
:10165000E550F14F24918951914FFC0184918823E9
:10166000C9F090E0880F991FFC01E753F14FA59155
:10167000B491FC01ED52F14FC591D49161110DC0AF
:101680009FB7F8948C91209582238C93888128238E
:1016900028839FBFDF91CF910895623051F49FB7A7
:1016A000F8943C91822F809583238C93E8812E2B94
:1016B000EFCF8FB7F894EC912E2B2C938FBFEACFFE
:1016C0008E50806480937C0080917A008064809347
:1016D0007A0080917A0086FDFCCF8091780090910D
:1016E000790008953FB7F894809101029091020229
:1016F000A0910302B091040226B5A89B05C02F3F1C
:1017000019F00196A11DB11D3FBFBA2FA92F982F27
:101710008827BC01CD01620F711D811D911D42E022
:10172000660F771F881F991F4A95D1F708958F92EA
:101730009F92AF92BF92CF92DF92EF92FF926B0196
:101740007C010E94720B4B015C01C114D104E104C5
:10175000F104B9F00E94720B681979098A099B0992
:10176000683E73408105910580F321E0C21AD108DB
:10177000E108F10888EE880E83E0981EA11CB11CD8
:10178000E4CFFF90EF90DF90CF90BF90AF909F900D
:101790008F9008952FB7F8946091FD017091FE012C
:1017A0008091FF01909100022FBF0895CF93DF93A6
:1017B000EC01E881F9810480F581E02D309709F092
:1017C0000995EE81FF81309709F00995EA81FB8147
:1017D0000190F081E02D309709F009958A819B8175
:1017E00090930A03809309030E94CA0B209111036E
:1017F00030911203A0910903B0910A03E0910F0305
:10180000F091100350E040E0421753076CF4C081A0
:10181000D181CA17DB0721F460877187828793879C
:101820004F5F5F4F7096F0CFDF91CF910895209179
:101830001303222311F140910D0350910E03609187
:10184000090370910A03E0910B03F0910C0330E05F
:1018500020E0241735078CF4A081B181A617B707C3
:1018600041F4A481B5818A179B0719F4CF010C9428
:10187000D60B2F5F3F4F3896ECCF0895CF92DF9273
:10188000EF92FF9261E08BE00E94F60A6AE070E05E
:1018900080E090E00E94970B20910F0130911001A1
:1018A0008091110190911201280F391F40910D0173
:1018B00050910E01249FC001259F900D349F900DE3
:1018C000112464E670E00E94673790E080E00E9497
:1018D000F2346B017C0120E030E040E85FE30E94DD
:1018E000ED3487FF06C0C12CD12C80E8E82E8FE3B1
:1018F000F82E109281001092850010928400809141
:101900006902806180938100C701B6010E94273778
:10191000072E000C880B990B0E94970B6AE070E071
:1019200080E090E00E94970B60E08BE00E94F60A56
:1019300083E090E0FF90EF90DF90CF900C94170C35
:101940000F931F930E94CA0B6093720270937302ED
:1019500080937402909375028AE692E00E94D30904
:1019600097FF1DC00E94CA0B009172021091730272
:101970002091740230917502601B710B820B930BE6
:1019800000916E0210916F022091700230917102ED
:101990006017710782079307F8F28FEF9FEF1F918F
:1019A0000F9108956115710579F08617970761F019
:1019B00077FD0AC04617570730F4C901621773074D
:1019C00018F4CB010895CA01089561157105E1F07D
:1019D00077FF0FC022273327261B370B281739071D
:1019E00030F4680F791F4617570708F4AB01CA0196
:1019F0000895680F791F46175707C8F7AB012617D8
:101A00003707A8F7A901F3CFAC01F1CF0895CF9321
:101A1000DF93EC018D85882329F081508D87DF913C
:101A2000CF9108959C818E819817C8F7888968277F
:101A3000E881F9810084F185E02D42E0CE0109952D
:101A40008C818F5F8C83EBCFDC01ED91FC91008466
:101A5000F185E02D40E009940F931F93CF938C0103
:101A6000FC016483C085C60F6C2F6F700E94240D2B
:101A70006C2F62956F706061C801CF911F910F91BB
:101A80000C94240DFC012781269526952695621736
:101A900038F465832385620F6770606B0C94240DA6
:101AA00008951F93CF93DF93EC01142F8E81681755
:101AB00018F4CE010E942C0D612FCE01DF91CF9141
:101AC0001F910C94420DCF92DF92EF92FF920F93F1
:101AD0001F93CF93DF93EC01F62EC42ED22E1D86DA
:101AE0008F81869586958695081710F00FEF080F61
:101AF0001D2D011780F0412F6F2DCE010E94510D39
:101B0000EF2CCE1430F06889CE010E94070DE394CB
:101B1000F8CF1F5FEECF4D2D6F2DCE01DF91CF910E
:101B20001F910F91FF90EF90DF90CF900C94510D8B
:101B30000F931F93262FDC011E964D915C911F97EA
:101B400051963C9100E04115510571F0FA01339630
:101B5000049110E0095F1F4F63E0159507956A95A2
:101B6000E1F7309F002D11246FEF620F060FE0E0C8
:101B70004115510531F0FA013296E491E39FE02DD1
:101B80001124DC0119964C91349F302D1124432FE0
:101B90004E0F5527551FFA0135E03E9FA0013F9F8C
:101BA000500D11244A5C67E30E94630D1F910F9151
:101BB00008950F93DC0115962C9115971E96ED91C3
:101BC000FC911F9700E0309779F03396E491F0E0B4
:101BD000379683E0F595E7958A95E1F751960C9154
:101BE00051970E9F002D1124EFEFE20F0E0F169666
:101BF0004C911697415014966C911497CD010E9408
:101C0000630D0F9108952F923F924F925F926F92C2
:101C10007F928F929F92AF92BF92CF92DF92EF927C
:101C2000FF920F931F93CF93DF9300D000D000D08B
:101C3000CDB7DEB7FC01268537852115310509F4BE
:101C40004AC19E838D83F901329664903196449106
:101C5000E42EF12CF7E0EF0EF11C53E0F594E7943D
:101C60005A95E1F7E982F901349654913196E4915D
:101C7000651748F08E2F90E0FC01E50FF11D6E17FF
:101C80001F060CF469C06D3031F5ED81FE8186814F
:101C900081111BC081E090E026960FB6F894DEBF5C
:101CA0000FBECDBFDF91CF911F910F91FF90EF90AD
:101CB000DF90CF90BF90AF909F908F907F906F906C
:101CC0005F904F903F902F90089560E08D819E81AE
:101CD0000E942C0DDFCF6A3009F0FDC0ED81FE813E
:101CE0008681882321F060E0CF010E942C0DED81D8
:101CF000FE8181898E9DE02C112465816E0D848585
:101D0000882349F097819695969596958E2D891BF7
:101D1000860F18162CF08D819E810E94420DBACF3D
:101D2000ED81FE812385820F877083879E199583BD
:101D3000CF010E94D90DED81FE818485813009F0AB
:101D4000A9CF6385660F660F660F6F736287606445
:101D5000CF010E94240D9ECF89010A5F1F4F651B92
:101D6000ED81FE8171855189759F502D11245C8311
:101D7000F90154912F5F3F4FF9012491352F223003
:101D8000310508F06AC06E9CC0016F9C900D112453
:101D9000689FF001699FF00D11240E0F1F1F512C39
:101DA000ED81FE81F481FA83ED81FE812580F58548
:101DB000FB83862C912CAA24A394B12C312C8981ED
:101DC000381608F086C0412CED81FE8181894816C5
:101DD00008F078C08B818587311002C0442041F023
:101DE000ED81FE8145814F5F6A81CF010E94510DD7
:101DF000D12CC12CC61408F058C0F801EC0DFD1D03
:101E00007490552061F0EA14FB0449F4E72DF0E0EA
:101E1000052C02C0F595E7950A94E2F77E2EED8138
:101E2000FE818189823081F4442009F43AC07294A1
:101E30008FE07822E72DF0E0E754F14F7490672DA2
:101E40008D819E810E94070D672D8D819E810E944C
:101E5000070D8FEFC81AD80ACDCF477028E0522E51
:101E6000541A411101C0512CF801612C30E020E0DE
:101E7000661631F04491240F311D63943196F8CFEA
:101E8000600E712E711CF3016490E29EF001E39EDE
:101E9000F00DF29EF00D11248E0F9F1F080F191FD9
:101EA0007FCFF72DFF707F2EC5CFD12CEC81DE16B2
:101EB00039F060E08D819E810E94070DD394F6CFAA
:101EC000439482CF3394080D191DFFEFAF1ABF0A58
:101ED00076CF622D20CF90E080E0DECE0F93CF93BF
:101EE000DF93EC011B861A8660E40E94240D0F81AB
:101EF00006950695069501504E81415020E060E020
:101F0000CE010E94630DDF91CF910F910895CF9381
:101F1000DF9347E060E083EB93E00E94510D64E8BB
:101F200071E083EB93E00E94730947E062E383EB87
:101F300093E00E94510DCBE0D0E083EB93E00E9450
:101F4000D90D62E871E083EB93E00E94730968ECBD
:101F500070E080E090E00E94970B219771F783EB8F
:101F600093E00E946E0F8EE993E0DF91CF910C9485
:101F70006E0FCF92DF92FF920F931F93CF93DF9359
:101F8000EC011C821D82E5E8F2E1C590D490E7E8FF
:101F9000F2E1F490E8E8F2E1E491EE83E9E8F2E1BD
:101FA000E491EF83EAE8F2E1E491E88710E000E0F1
:101FB0000F1550F4F801EC0DFD1D6491CE010E9447
:101FC000240D0F5F1F4FF4CFCE01DF91CF911F91F2
:101FD0000F91FF90DF90CF900C946E0FCF92DF9215
:101FE000EF92FF920F931F93CF93DF93EC010E9428
:101FF000CA0B6B017C0188810E94CD0A9C018E81F5
:1020000091E0811104C0232B21F490E002C0232B26
:10201000E1F74E855F856889798997018601041B00
:10202000150B260B370B49815A816B817C81041774
:1020300015072607370778F41986CA86DB86EC86EB
:10204000FD868F81DF91CF911F910F91FF90EF90CF
:10205000DF90CF9008958F8188879F83292F28272D
:102060002987981751F3CE86DF86E88AF98AE5CF6B
:10207000CF93DF93EC018D8160E0811162E0888174
:102080000E94240B88810E94CD0A9C0181E02115C9
:10209000310509F480E08F838E81882329F091E057
:1020A000232B09F090E09F830E94CA0B6A877B87ED
:1020B0008C879D872F81288719866E877F87888BDD
:1020C000998BDF91CF910895FC01F89484819581DB
:1020D00020852230D1F49C0121703327358324835D
:1020E000789420852430D1F495958795959587959A
:1020F00023852223C1F021853285232F332797FFA3
:1021000015C0C901809590950895243021F49C0153
:1021100023703327E3CF15821482E2CF223041F7B8
:1021200095958795E5CF30E020E0E9CF009711F055
:10213000C90101960895009789F06115710571F044
:10214000DC011396ED91FC911497309749F41496A5
:102150007C936E931397FB01108617820895F90103
:102160002781308521153105D1F770876783F3CF3B
:102170000895089510926202089508950895EDE07B
:10218000F1E083E090E0918380832AE030E03383C4
:102190002283358324832FE0268344E150E060E0EE
:1021A00070E047835087618772879487838708959B
:1021B0000895E1EBF0E08081887F8083EDE0F1E03D
:1021C0008FE08683A0E0B1E08081918111969C939D
:1021D0008E938281938113969C938E931297848120
:1021E000958115969C938E931497478150856185B0
:1021F000728517964D935D936D937C931A978385A3
:1022000094851C969C938E931B970895809113013F
:102210008F3009F060C08091180190911901892BCD
:1022200019F480EF8093130180910F0190911001B8
:10223000B0E0A0E0409114015091150160911601A9
:1022400070911701481759076A077B0721F461E06D
:102250008AE00E94F60A8091140190911501A091E4
:102260001601B0911701892B8A2B8B2B09F560E0A1
:102270008AE00E94F60A8091180190911901019755
:10228000909319018093180180910F019091100192
:102290002091110130911201820F931FB0E0A0E054
:1022A0008093140190931501A0931601B093170128
:1022B0008091140190911501A0911601B091170120
:1022C0000197A109B1098093140190931501A0937E
:1022D0001601B093170180911301803F19F480E13A
:1022E000809381000895CF92DF92EF92FF920F9337
:1022F0001F93CF93DF93C0916502D09166020E9435
:10230000CA0B6B017C018B85882359F089859A85DE
:1023100002979A87898789859A8597FF02C01A86CE
:10232000198688810E94CD0A2B8113E0281719068F
:1023300009F010E089810E94CD0A2B812817190627
:1023400011F481E018278E819F81811B80FFB1C02D
:10235000212F110F330B3F832E832C813D818270FF
:10236000082E000C990B0197820F931F9D838C837D
:1023700081E09B85992361F0882351F089859A85B6
:10238000883E9B4028F489859A8549969A87898753
:102390008A81882309F44BC04A895B896C897D89CD
:1023A00097018601041B150B260B370BB901A801F9
:1023B0004A30510561057105D0F1CA8ADB8AEC8A81
:1023C000FD8A0E94CD0A2B812817190661F48F859A
:1023D00098890196988B8F878937910520F083E043
:1023E00090E09D878C878A810E94CD0A2B8131E005
:1023F00023272817190681F48F859889892B51F096
:102400008C859D85039709F056C084E090E09D87F8
:102410008C87198A188A1F868989882341F08250FF
:10242000898B811104C085E090E09D878C878EE0C8
:102430000E94600B2091610221112DC0D091620297
:10244000D13049F5C0915F0224E0C29F8001112480
:10245000095F1D4FBC01990F880B990B0E94F43442
:1024600025EE3FEF4FE95BE30E9453352BE734E164
:102470004EE750E40E945335F801608371838283F4
:102480009383D093600284E680936102CF5FC5316D
:1024900018F5C0935F0280916102815080936102C0
:1024A000DF91CF911F910F91FF90EF90DF90CF9030
:1024B000089580E05ECF8989823030F08C3308F057
:1024C000A9CF86E090E0A3CF8E85811103C081E083
:1024D000898BA0CF8CE3FCCF10925F02DCCFFC0194
:1024E0006093BC008091BC0087FFFCCF9091B90045
:1024F000987F90830895DF92EF92FF920F931F933E
:10250000CF93DF93EC01D62EF42E8C89882351F0E3
:10251000411108C084E98093BC008091BC0084FD17
:10252000FCCF1C8A8E010E5E1F4F8C8981111AC050
:10253000EB8864EAC8010E946F128A89883011F022
:10254000803139F4EE0CE092BB0064E8C8010E94CF
:102550006F1280E0F11080E48093BB0064E8C80152
:102560000E946F12D092BB0064E8C8010E946F12F3
:1025700082E0F8120BC08C898F5F8C8BDF91CF913A
:102580001F910F91FF90EF90DF90089584E9809361
:10259000BC008091BC0084FDFCCF1C8AEFCF089565
:1025A00090E080E00895CF92DF92EF92FF920F9338
:1025B0001F93CF93DF937C018B016A01C9E0D3E0C5
:1025C0006C817D816F5F7F4F83E0660F771F8A95F7
:1025D000E1F78A819B810E94E7389B838A832C8163
:1025E0003D81F90143E0EE0FFF1F4A95E1F7E80F47
:1025F000F91FF182E08213830283D582C48217829D
:1026000016822F5F3F4F3D832C83DF91CF911F9127
:102610000F91FF90EF90DF90CF9008958F929F924F
:10262000AF92BF92EF92FF920F931F93CF93DF93DE
:102630007C018B0149015A01C9E0D3E068857985A5
:102640006F5F7F4F84E0660F771F8A95E1F78E8179
:102650009F810E94E7389F838E8328853985F90101
:1026600044E0EE0FFF1F4A95E1F7E80FF91FF182F2
:10267000E0821383028315821482178216821086E9
:1026800011861286138684869586A686B7862F5F66
:102690003F4F39872887DF91CF911F910F91FF908E
:1026A000EF90BF90AF909F908F9008950F931F93DE
:1026B000CF93DF93EC0188819981009759F02A81AB
:1026C0003B812617370730F081E0DF91CF911F91D2
:1026D0000F9108958B016F5F7F4F0E94E73800973D
:1026E00059F0998388831B830A832C813D81232B96
:1026F00059F7FC011082E8CF80E0E7CF0F931F93DA
:10270000CF93DF93EC018B018CE090E00E94C23705
:10271000FC011183008382818C7F82831482138267
:1027200085818E7F85831782168211861086138697
:102730001286F983E88381E08A83A0919203B091A5
:1027400093031097A9F4F0939303E09392033097C7
:1027500031F085819091900390FB80F9858381E031
:102760008A83CE01DF91CF911F910F910895DC01F3
:102770001A968D919C911B970097C9F71B96FC9315
:10278000EE931A97E4CFCF92DF92EF92FF920F93DE
:102790001F93CF93DF938C016B01E0908A03F0903D
:1027A0008B03E114F10449F1F7018281837029F56B
:1027B00089E090E00E94C237EC01D982C8821B8276
:1027C0001A821D821C828E818C7F8460877F8E831B
:1027D00018861F82BE01C7010E949B10F801D18399
:1027E000C08381E08283C801DF91CF911F910F9157
:1027F000FF90EF90DF90CF900895F8011182108242
:10280000F0CFAF92BF92CF92DF92EF92FF920F93F1
:102810001F93CF93DF938C015A016901FB01E08084
:10282000F180E114F10459F1F7018281837039F5E7
:1028300089E090E00E94C237EC01B982A882DB8275
:10284000CA821D821C828E81887F8160877F8E83F1
:1028500018861F82BE01C7010E949B10F801D18318
:10286000C08381E08283C801DF91CF911F910F91D6
:10287000FF90EF90DF90CF90BF90AF900895F80158
:1028800011821082EECF0E94A439FC0180819181D7
:10289000009711F00C94A13460E070E0CB01089532
:1028A000EF92FF920F931F93CF93DF936115710502
:1028B00041F480E0DF91CF911F910F91FF90EF9055
:1028C000089541155105B1F07B01EC010C811D818A
:1028D000040F151FB8010E945613882351F3288155
:1028E00039818C819D81B701820F931F0E94B2397B
:1028F0001D830C8381E0DECFCF93DF9300D0CDB773
:10290000DEB769831A8241E050E0BE016F5F7F4FFE
:102910000E9450140F900F90DF91CF910895FB010A
:1029200044815581608171810C945014CF93DF9361
:10293000EC0188819981009711F00E945E3819821C
:1029400018821D821C821B821A82DF91CF9108950A
:10295000CF93DF93EC01FB0144815581608171814C
:102960000E945014811103C0CE010E949614CE0122
:10297000DF91CF910895EF92FF920F931F93CF9322
:10298000DF93EC01198218821B821A821D821C823D
:102990008617970719F1FB010081118101151105B7
:1029A000E9F0E480F580B7010E945613811109C057
:1029B000CE01DF91CF911F910F91FF90EF900C947A
:1029C0009614FD82EC82B80188819981DF91CF91C4
:1029D0001F910F91FF90EF900C94B239DF91CF913E
:1029E0001F910F91FF90EF900895FC0180819181DC
:1029F000009711F00C945E380895CF93DF93EC01AB
:102A00008C819D81009711F00E94FD14209729F080
:102A1000CE01DF91CF910C945E38DF91CF91089574
:102A20000F931F93CF93DF93EC018E819F810097CB
:102A300011F00E9410152097B1F00C811D81011535
:102A4000110551F0F80180819181009711F00E94E9
:102A5000FD14C8010E945E38CE01DF91CF911F9115
:102A60000F910C945E38DF91CF911F910F910895D3
:102A7000CF93DF93009751F0EC018E819F810097F7
:102A800011F00E945E38CE010E945E3890E080E036
:102A9000DF91CF910895CF93DF93EC0188859985DD
:102AA000009711F00E944B15CE01DF91CF910C944D
:102AB0003815CF93DF93D62FC72F141615067CF049
:102AC000009711F00E944B158D2F9C2F0E943815F6
:102AD000D0E0C0E08D2F9C2FDF91CF910895FC01B5
:102AE00021E030E00097B1F36085718561157105D3
:102AF00069F4D087C187D82FC92F4217530754F7DD
:102B0000FC01D085C1850E943815E4CF2F5F3F4F6F
:102B1000FB01EACFCF93DF93009761F0EC018C814A
:102B20009D81009721F00E945E381D821C828E815B
:102B3000877F8E83DF91CF910895CF93DF930097A6
:102B400059F0EC018F8198850E949D15CE010E945D
:102B50008A15CE010E945E3890E080E0DF91CF912F
:102B60000895CF93DF93009741F0EC018B819C8116
:102B70000E949D15CE010E945E3890E080E0DF91BA
:102B8000CF910895FC012281211104C0808191819F
:102B90000C94B1150895CF93DF93009741F0EC01A9
:102BA0008A859B850E94CB15CE010E94B11590E0CD
:102BB00080E0DF91CF910895CF93DF93FC012281D4
:102BC00021110CC0C081D181209741F0CE010E941B
:102BD0008A15CE01DF91CF910C945E38DF91CF91B1
:102BE0000895EF92FF920F931F93CF93DF93009777
:102BF00099F17A018B01EC01672B61F48E81886079
:102C00008E8381E090E0DF91CF911F910F91FF9033
:102C1000EF900895452B91F38E8183FF03C0CE0181
:102C20000E948A15C70101960E94C2379D838C833A
:102C3000F8010E0D1F1D50E040E030E020E090E074
:102C400080E0E017F10759F4452B41F18C819D811B
:102C50000E945E381D821C8290E080E0D4CF61919A
:102C60006C3559F4232B89F0AC81BD81A80FB91FB5
:102C70006C93019630E020E0E4CF6232A9F7211591
:102C8000310591F761E04627DCCF21E030E0D9CF74
:102C9000EC81FD81E80FF91F10820196E816F90614
:102CA000B8F7ACCFEF92FF920F931F93CF93DF93C0
:102CB000EC01198218821B821A821D821C82611506
:102CC000710521F18B01FB0101900020E9F731979B
:102CD0007F01E61AF70AB7010E945613811109C055
:102CE000CE01DF91CF911F910F91FF90EF900C9447
:102CF0009614FD82EC82B80188819981DF91CF9191
:102D00001F910F91FF90EF900C94B239DF91CF910A
:102D10001F910F91FF90EF900895CF93DF93EC01F7
:102D2000DB01ED91FC91309751F064817581611563
:102D3000710539F4628173816115710511F464E4E0
:102D400071E0CE010E945216CE01DF91CF9108951D
:102D5000EF92FF920F931F93CF93DF93CDB7DEB720
:102D600062970FB6F894DEBF0FBECDBF7C018B011A
:102D7000DC01ED91FC91309719F0868182FD04C051
:102D80006BE5C8010E947C14D701ED91FC9164E4CD
:102D900071E0309711F060817181CE0107960E9439
:102DA0005216B701CE010D960E948D16D701ED91F6
:102DB000FC916DE2309771F186818370823051F51C
:102DC000C8010E947C14BE01695F7F4FC8010E9448
:102DD0008F14D701ED91FC91309719F0868182FD17
:102DE00004C06DE5C8010E947C14CE010D960E94BE
:102DF000F514CE0107960E94F51462960FB6F8946A
:102E0000DEBF0FBECDBFDF91CF911F910F91FF901D
:102E1000EF900895C8010E947C14BE01695F7F4F46
:102E2000C8010E948F1460E2C8010E947C146CE308
:102E3000C8010E947C1489899A89892BB1F0BE014E
:102E4000635F7F4FCE0101960E94BB14BE016F5F8E
:102E50007F4FC8010E948F14CE0101960E94F51485
:102E60006EE3C8010E947C14B4CF68EB71E0CE0120
:102E700001960E945216EACFFB0101900020E9F76B
:102E80003197AF01461B570BDC01ED91FC9102809D
:102E9000F381E02D0994CF93DF93FC0144815581A8
:102EA000608171818AE692E00E949709EC0162E4F8
:102EB00071E08AE692E00E943C178C0F9D1FDF9123
:102EC000CF9108958F929F92AF92BF92EF92FF920F
:102ED0000F931F93CF93DF93CDB7DEB7A1970FB6B4
:102EE000F894DEBF0FBECDBF7C01FA01CB0119A261
:102EF000223008F42AE08E010F5D1F4F822E912CA4
:102F0000B12CA12CBF01A50194010E947B37F901CE
:102F1000CA016A300CF5605DD8016E938D01232BD8
:102F2000242B252B79F790E080E0109721F0BD014C
:102F3000C7010E943C17A1960FB6F894DEBF0FBEE2
:102F4000CDBFDF91CF911F910F91FF90EF90BF9078
:102F5000AF909F908F900895695CDECFAB0170E0D9
:102F600060E02AE00C946217CF9382E08093C40360
:102F700062E083EB93E00E94980D42E067E383EB0D
:102F800093E00E94510D80910F01909110012AE071
:102F9000289FB001299F700D112483EB93E00E94BC
:102FA000AE17C1E0C093C40343E063E783EB93E053
:102FB0000E94510D67EF7DE083EB93E00E9473095F
:102FC00080910F01909110010A9791F4C093C4036E
:102FD00042E06EE683EB93E00E94510D83EB93E0B9
:102FE0000E94D90D63EF7DE083EB93E00E947309AB
:102FF00080910F01909110018436994199F481E0FC
:103000008093C40342E06EE683EB93E00E94510D8F
:1030100083EB93E00E94D90D6FEE7DE083EB93E0AC
:103020000E94730980910F01909110018A309105DF
:1030300081F08436994169F081E08093C40342E0D5
:103040006EE683EB93E00E94510D83EB93E00E94C8
:10305000D90D82E08093C40344E060E083EB93E009
:103060000E94510D69EE7DE083EB93E00E947309AD
:1030700064E083EB93E00E94980D44E067E383EB08
:1030800093E00E94510D80911101909112012AE06C
:10309000289FB001299F700D112483EB93E00E94BB
:1030A000AE17C1E0C093C40345E063E783EB93E050
:1030B0000E94510D66EE7DE083EB93E00E94730960
:1030C00080911101909112010A9791F4C093C40369
:1030D00044E06EE683EB93E00E94510D83EB93E0B6
:1030E0000E94D90D62EE7DE083EB93E00E947309AC
:1030F00080911101909112018436994199F481E0F7
:103100008093C40344E06EE683EB93E00E94510D8C
:1031100083EB93E00E94D90D6EED7DE083EB93E0AD
:103120000E94730980911101909112018A309105DA
:1031300081F08436994169F081E08093C40344E0D2
:103140006EE683EB93E00E94510D83EB93E00E94C7
:10315000D90D82E08093C40346E061E483EB93E001
:103160000E94510D83EB93E00E94D90D60910D01F7
:1031700070910E0183EB93E00E94AE1747E064E686
:1031800083EB93E00E94510DC1E0C093C40368ED4E
:103190007DE083EB93E00E94730980910D01909193
:1031A0000E01019791F4C093C40346E064E683EBFB
:1031B00093E00E94510D83EB93E00E94D90D64EDE2
:1031C0007DE083EB93E00E94730980910D01909163
:1031D0000E01843F914099F481E08093C40346E05E
:1031E00064E683EB93E00E94510D83EB93E00E9431
:1031F000D90D60ED7DE083EB93E00E94730980912F
:103200000D0190910E018130910589F0843F91402C
:1032100071F081E08093C40346E064E683EB93E0C1
:103220000E94510D83EB93E0CF910C94D90DCF9177
:10323000089580916502909166020E9464109093B7
:10324000FB018093FA012091FA013091FB018091FA
:10325000F8019091F90128173907B1F18091FA012D
:103260009091FB01181619060CF097C08091FA0195
:103270009091FB0145E0489F9001499F300D11243A
:1032800080910F01909110014091FA015091FB0142
:103290008217930708F08CC057FF8AC08AE090E03D
:1032A0009093100180930F018091FA019091FB019E
:1032B0009093F9018093F8010E94B41766E970E0D9
:1032C00080E090E00E94970BE0916502F091660229
:1032D00084859585248535852330310511F0158643
:1032E0001486009739F08330910509F472C0059770
:1032F00009F474C084E593E00E94EE0F8823D1F0B6
:1033000080910F01909110018536910528F0845627
:1033100091098A30910510F48AE090E090931001B1
:1033200080930F010E94B41766E970E080E090E09E
:103330000E94970B82E493E00E94EE0F8823E9F04D
:1033400080910F01909110018C599F4F853629E192
:10335000920710F084E699E18A30910510F48AE032
:1033600090E09093100180930F010E94B41766E9DA
:1033700070E080E090E00E94970B86E693E00E9468
:10338000EE0F882371F181E090E00E94170C66E94E
:1033900070E080E090E00C94970B4091FA0150911E
:1033A000FB016BEF64039001659F300D112468CF22
:1033B0002091FA013091FB0145E0429FB001439F0B
:1033C000700D112424E639E14AE050E00E94E50C3A
:1033D00067CF83E090E00E94170C8CCF81E090E0F3
:1033E000FACF089580916502909166020E94641060
:1033F0009093FB018093FA012091FA013091FB0137
:103400008091F8019091F90128173907B1F1809165
:10341000FA019091FB01181619060CF097C08091E3
:10342000FA019091FB0145E0489F9001499F300DC2
:10343000112480911101909112014091FA01509153
:10344000FB018217930708F08CC057FF8AC08AE0FF
:1034500090E090931201809311018091FA01909174
:10346000FB019093F9018093F8010E94B41766E97B
:1034700070E080E090E00E94970BE0916502F0918F
:10348000660284859585248535852330310511F0C4
:1034900015861486009739F08330910509F472C0BF
:1034A000059709F474C084E593E00E94EE0F882329
:1034B000D1F080911101909112018536910528F08B
:1034C000845691098A30910510F48AE090E0909337
:1034D0001201809311010E94B41766E970E080E048
:1034E00090E00E94970B82E493E00E94EE0F882305
:1034F000E9F080911101909112018C599F4F85360E
:1035000029E1920710F084E699E18A30910510F4E0
:103510008AE090E090931201809311010E94B41709
:1035200066E970E080E090E00E94970B86E693E009
:103530000E94EE0F882371F182E090E00E94170C48
:1035400066E970E080E090E00C94970B4091FA01FE
:103550005091FB016BEF64039001659F300D1124C6
:1035600068CF2091FA013091FB0145E0429FB00104
:10357000439F700D112424E639E14AE050E00E9497
:10358000E50C67CF83E090E00E94170C8CCF82E0BF
:1035900090E0FACF089580916502909166020E94B2
:1035A00064109093FB018093FA012091FA0130910D
:1035B000FB018091F8019091F9012817390711F169
:1035C0006091FA017091FB0124EF31E041E050E09D
:1035D00080910D0190910E010E94E50C90930E01D7
:1035E00080930D018091FA019091FB019093F90174
:1035F0008093F8010E94B41766E970E080E090E0E3
:103600000E94970BE0916502F09166028485958592
:10361000248535852330310511F0158614860097F1
:1036200039F08330910509F44FC0059709F451C072
:1036300084E593E00E94EE0F8823A9F080910D01AC
:1036400090910E018B30910508F446C00A97909333
:103650000E0180930D010E94B41766E970E080E0CE
:1036600090E00E94970B82E493E00E94EE0F882383
:10367000D9F080910D0190910E010A96853F21E0CD
:10368000920710F084EF91E0009711F481E090E050
:1036900090930E0180930D010E94B41766E970E0CB
:1036A00080E090E00E94970B86E693E00E94EE0F88
:1036B0008823A9F090E080E00E94170C66E970E092
:1036C00080E090E00C94970B83E090E00E94170C50
:1036D000AFCF90E080E0FACF81E090E0B8CF0895DE
:1036E0002F923F924F925F926F927F928F929F9212
:1036F000AF92BF92CF92DF92EF92FF921F93CF9340
:10370000DF93EC016A017B01722EAB019601CB01C4
:10371000B6010E94623765E471E0811126C046015E
:103720005701E894B7F82FEF3FEF4FE75FE7C50188
:10373000B4010E94623781110CC02FEF3FEF4FE7B9
:103740005FE7C501B4010E94ED3469E471E0181629
:1037500064F02FEF3FEF4FE75FE4C701B6010E942F
:103760005D371816B4F46DE471E0CE01DF91CF91AE
:103770001F91FF90EF90DF90CF90BF90AF909F9000
:103780008F907F906F905F904F903F902F900C9410
:103790003C172FEF3FEF4FE75FECC701B6010E94E8
:1037A000ED3487FDE0CF20E030E0A901C701B6018C
:1037B0000E94ED34312C212C87FF0DC0E881F98166
:1037C0000190F081E02D6DE2CE0109951C01F7FA20
:1037D000F094F7F8F09410E060E070E080E09FE390
:1037E000711641F020E030E040E251E40E94B5362D
:1037F0001F5FF6CFA70196010E9449362B013C01BD
:103800000E942E374B015C012AE0BC01A401CE01CD
:103810000E9462177C01E20CF31C1123C1F1C50167
:10382000B4010E94F2349B01AC01C301B2010E94B9
:1038300048364B015C01E881F9810190F081E02D6F
:103840006EE2CE010995E80EF91E115000F120E05C
:1038500030E040E251E4C501B4010E9453352B0130
:103860003C010E942E374B01CE010E94AE17E80E9C
:10387000F91EB40190E080E00E94F2349B01AC019B
:10388000C301B2010E9448364B015C01DECFC70183
:10389000DF91CF911F91FF90EF90DF90CF90BF907D
:1038A000AF909F908F907F906F905F904F903F90E0
:1038B0002F9008950F931F93CF93DF93EC010E94F5
:1038C00073098C0162E471E0CE010E943C17800F05
:1038D000911FDF91CF911F910F910895EDE0F1E0DD
:1038E000A0E0B1E08D919C91119791838083129615
:1038F0008D919C9113979383828314968D919C91C3
:1039000015979583848317964D915D916D917C9168
:103910001A9747835087618772871B968D919C9178
:1039200094878387809163029091640201969093BB
:1039300064028093630263E870E08AE692E00E948A
:10394000730960916302709164028AE692E00E94BA
:10395000AE1761E870E08AE692E00E945A1CE1EB43
:10396000F0E0808190910602892B808308950F9367
:103970001F93CF9383EB93E00E946E0F03EB13E052
:10398000C2E0F801C18B66E771E0C8010E947309CB
:1039900043E06FE0C8010E94510D6DE671E0C8017F
:1039A0000E94730946E060E0C8010E94510D81E069
:1039B000F801818B6EE571E0C8010E9473092AE06D
:1039C00040E052EC61E070E0C8010E946217C093D1
:1039D000AF038EE993E00E946E0F66E571E08EE919
:1039E00093E00E94730943E060E08EE993E00E9457
:1039F000510D67E471E08EE993E00E94730945E0A0
:103A000060E08EE993E00E94510D6DE371E08EE974
:103A100093E00E94730922E040E050E060E470E42B
:103A20008EE993E00E94701B62E171E08AE692E009
:103A30000E945A1C60EF70E08AE692E00E947309CF
:103A400022E040E050E060E470E48AE692E00E9408
:103A5000701B6EEE70E08AE692E00E945A1C6BEBDF
:103A600070E08AE692E00E945A1C60E970E08AE603
:103A700092E0CF911F910F910C945A1C6115710522
:103A800011F00C943C1790E080E00895AF92BF9243
:103A9000DF92EF92FF920F931F93CF93DF935C011E
:103AA0007B018A01E901DD24D394D092C40340E074
:103AB00060E083EB93E00E94510D83EB93E00E9462
:103AC000D90DB50183EB93E00E943E1DE114F10492
:103AD00089F0D092C40341E060E083EB93E00E9460
:103AE000510D83EB93E00E94D90DB70183EB93E076
:103AF0000E943E1D0115110591F081E08093AF03F6
:103B000040E060E08EE993E00E94510D8EE993E081
:103B10000E94D90DB8018EE993E00E943E1D2097C6
:103B2000D9F081E08093AF0341E060E08EE993E05B
:103B30000E94510D8EE993E00E94D90DBE018EE9DD
:103B400093E0DF91CF911F910F91FF90EF90DF9065
:103B5000BF90AF900C943E1DDF91CF911F910F91BC
:103B6000FF90EF90DF90BF90AF900895CF93DF93D9
:103B700081E08093AF0347E060E08EE993E00E942C
:103B8000510DD0E0C0E0E0916502F09166028485BD
:103B90009585248535852330310511F015861486E9
:103BA0000397A9F4C531D10590F48EE993E00E9402
:103BB000D90D61E571E08EE993E00E943E1D62E35C
:103BC00070E080E090E00E94970B2196DCCF47E008
:103BD00060E08EE993E00E94510D8EE993E0DF9161
:103BE000CF910C94D90D0F931F93CF93DF938C013A
:103BF000EB010E94CF34AC0190E0292F30E0241774
:103C0000350754F4F801E20FF31FE4912C0F3D1F28
:103C1000D901EC939F5FF1CFDF91CF911F910F916D
:103C20000895CF93DF93CDB7DEB7CC5DD1090FB642
:103C3000F894DEBF0FBECDBFBE016F5F7F4F8DEB2F
:103C40009CE00E94F31DBE01685C7F4F86E89CE00B
:103C50000E94F31DBE0161597F4F8FE49CE00E94DA
:103C6000F31DBE016A557F4F88E19CE00E94F31D61
:103C70009E012A553F4FAE0141595F4FBE01685C1E
:103C80007F4FCE0101960E94461D0E94B61D809175
:103C90006502909166020E9464109093F9018093EE
:103CA000F801C452DF4F0FB6F894DEBF0FBECDBF90
:103CB000DF91CF910895CF93DF93CDB7DEB7CE5686
:103CC000D1090FB6F894DEBF0FBECDBFBE016F5F46
:103CD0007F4F8BE29DE00E94F31DBE01685C7F4F29
:103CE00084EF9CE00E94F31D30E020E050E040E0D3
:103CF000BE01685C7F4FCE0101960E94461D0E9466
:103D0000B61D80916502909166020E9464109093A6
:103D1000F9018093F801C259DF4F0FB6F894DEBF66
:103D20000FBECDBFDF91CF910895CF93DF93CDB775
:103D3000DEB7CE56D1090FB6F894DEBF0FBECDBFA9
:103D4000BE016F5F7F4F89E99DE00E94F31DBE01B8
:103D5000685C7F4F82E69DE00E94F31D30E020E02A
:103D600050E040E0BE01685C7F4FCE0101960E94AA
:103D7000461D0E94B61D80916502909166020E94C8
:103D800064109093F9018093F801C259DF4F0FB688
:103D9000F894DEBF0FBECDBFDF91CF910895CF92D3
:103DA000DF92EF92FF920F931F93CF93DF93CDB7E4
:103DB000DEB7CE56D1090FB6F894DEBF0FBECDBF29
:103DC000BE016F5F7F4F8CEF91E00E94F31DBE013B
:103DD000685C7F4F85EC91E00E94F31D83EBE82E39
:103DE00083E0F82E11E0F701118B40E060E0C7019D
:103DF0000E94510DC7010E94D90DF701118B41E0BE
:103E000060E0C7010E94510DC7010E94D90D9EE9D3
:103E1000C92E93E0D92EF601118B40E060E0C60177
:103E20000E94510DC6010E94D90DF601118B41E08F
:103E300060E0C6010E94510DC6010E94D90D30E01C
:103E400020E0AE01485C5F4F70E060E0CE0101967B
:103E50000E94461D02E0F701018B42E060E0C701CD
:103E60000E94510D6FEB71E0C7010E94730944E09D
:103E700060E0C7010E94510D69EB71E0C7010E942B
:103E8000730946E060E0C7010E94510D62EB71E0EA
:103E9000C7010E9473090E94B417F601018B42E02A
:103EA00060E0C6010E94510D6CEA71E0C6010E94FB
:103EB000730962E0C6010E94980D42E061E4C60108
:103EC0000E94510D40915B0250915C0260915D0235
:103ED00070915E0223E0C6010E94701B42E063E71E
:103EE000C6010E94510D6AEA71E0C6010E94730981
:103EF000F601118B45E060E0C6010E94510D6AE9B0
:103F000071E0C6010E94730944E060E0C6010E94AE
:103F1000510D6CE871E0C6010E947309F701118B25
:103F200040E06EE5C7010E94510DC7010E94D90D06
:103F300040E064E6C7010E94510D609163027091F8
:103F40006402C7010E94AE17EDE0F1E08281938127
:103F500024813581820F931FB0E0A0E08783908792
:103F6000A187B287808191819487838710936202B1
:103F70000E94B61DC259DF4F0FB6F894DEBF0FBEC8
:103F8000CDBFDF91CF911F910F91FF90EF90DF9008
:103F9000CF9008958F929F92AF92BF92CF92DF926F
:103FA000EF92FF920F931F93CF93DF9384179507A0
:103FB000B9F00097F1F041155105D9F0DA010D90F3
:103FC0000020E9F711974D01841A950A68157905C3
:103FD00051F5FC01DA01680F791F6E177F0711F4A4
:103FE00081E008C091915D912130310589F4591724
:103FF000A1F380E090E0DF91CF911F910F91FF90AE
:10400000EF90DF90CF90BF90AF909F908F900895EA
:104010008FEB890F8A3108F4905E8FEB850F8A3120
:1040200030F7505EE4CF8616970618F3F0E0E0E034
:10403000D0E0C0E05B0111E0A11AB108C617D707B4
:1040400008F056C0E815F905A0F68A010E0F1F1FEB
:10405000D8011C911F3239F531968C010C0F1D1FB0
:10406000D801FC908A010E0F1F1FD801EC9021305F
:104070003105F9F4FE102FC07F01BFEFEB1AFB0AE8
:10408000CA15DB0569F46A01CE0CDF1CD601DC9091
:10409000BCE2DB1629F0AFE2DA1611F0D1101BC03A
:1040A0002196F701CBCF1C32C1F63196D0E0C0E0AB
:1040B000D4CFBFEBDB2EDF0CB9E1BD1510F0A0E2D1
:1040C000FA0EAFEBDA2EDE0CB9E1BD1510F0A0E26E
:1040D000EA0EEF1489F2E815F90508F0AFCFD80120
:1040E000FD908D01BCE2FB1609F4A8CF3196F3CF09
:1040F0006C177D0709F07DCFE40FF51F20812C326E
:1041000009F46ECF81E090E02F3209F474CF2223BE
:1041100009F471CF80E06FCFCF92DF92EF92FF92E0
:104120000F931F93CF93DF93EC01FA01E080F180AE
:10413000FB01C080D180C114D10419F0E114F10455
:1041400071F41982188281E08A83CE01DF91CF91C8
:104150001F910F91FF90EF90DF90CF900895F6019F
:10416000038114810115110561F3F701019000200D
:10417000E9F73197BF016E197F09F601258121709A
:10418000F8014081518130E0C7010E94CA1F0197A8
:1041900019F419830883D7CFF80107811085E2CF7E
:1041A000CF93DF93EC01A881B981109769F1EB01FE
:1041B000E881F981309741F1AE17BF0719F180818D
:1041C0009181FC0101900020E9F73197BF01681B44
:1041D000790B0097A9F04D915C9111978417950781
:1041E00089F015962C91217030E00E94CA1F21E0C1
:1041F000019709F020E0822F8170DF91CF9108951F
:1042000080E0FACF81E0F8CF80E0F7CFEF92FF9225
:104210000F931F93CF93DF93D0E0C0E0009761F13D
:104220008C018AE090E00E94C237EC01F8018081A5
:10423000918199838883828193819B838A838481FE
:1042400095819D838C83E680F780FF82EE82808556
:10425000918599878887E114F10471F0F701019045
:104260000020E9F7CF018E199F090E94C2379F8372
:104270008E83B7010E94B239CE01DF91CF911F9199
:104280000F91FF90EF900895EF92FF920F931F937D
:10429000CF93DF938C01892BD9F189E090E00E94C4
:1042A000C237EC01F80180819181998388838281F2
:1042B00093819B838A831D821C829681292F237080
:1042C0008E818C7F822B92FB82F993FB83F98E8304
:1042D00018861F82E480F580E114F10489F0F7016B
:1042E00001900020E9F7CF018E199F090E94C23783
:1042F0009D838C83B7010E94B2398E8188608E8342
:10430000F801878190850E94442198878F838E01D0
:10431000C801DF91CF911F910F91FF90EF90089509
:104320000F931F93CF93DF938C01892B39F18CE08E
:1043300090E00E94C237EC01F8018081918199835D
:104340008883928193708A818C7F892B8A83838171
:1043500094810E9444219C838B83F80195818D81F7
:1043600090FB80F98D83868197819F838E838085E2
:104370009185998788871B861A868E01C801DF91EF
:10438000CF911F910F910895EF92FF920F931F937A
:10439000CF93DF93EC018B01198218821B821A8262
:1043A0001D821C82CB010E94CF347C01BC01CE0156
:1043B0000E945613811109C0CE01DF91CF911F9148
:1043C0000F91FF90EF900C949614FD82EC82B8014F
:1043D00088819981DF91CF911F910F91FF90EF908C
:1043E0000C94C834FF920F931F93CF93DF93CDB7F4
:1043F000DEB7A1970FB6F894DEBF0FBECDBF8C011C
:1044000061EB7EE08AE692E00E94730964E471E069
:10441000CE0149960E9452160115110509F4C1C139
:10442000D801ED91FC913296E830F10508F0B9C160
:10443000E45EFD4D0C94BC372422BC23BF23C22371
:10444000C523C823CB23CE2369E67EE0CE010196A7
:104450000E94C421BE016F5F7F4FCE0149960E942A
:104460008F14CE0101960E94F5140115110509F46F
:10447000CAC1F80182819381892B09F44AC06DE990
:104480007EE0CE0101960E94C421D8011296ED91E2
:10449000FC91F8A3EF8F81E089A364E471E0309789
:1044A00011F060817181CE0107960E9452166FE86B
:1044B0007EE0CE0143960E94C421BE016D5E7F4F17
:1044C000CE010D960E94BB14BE01695F7F4FCE01E5
:1044D0000D960E94A814BE016F5F7F4F0E94A81422
:1044E000BC01CE0149960E948F14CE010D960E9408
:1044F000F514CE0143960E94F514CE0107960E9452
:10450000F514CE014F960E94C215CE0101960E946D
:10451000F514F80184819581892B09F44DC06DE86B
:104520007EE0CE0101960E94C421D80114968D919F
:104530009C9198A38F8F81E089A364E471E0CE0100
:1045400007960E945216BE01695F7F4FCE014F96BB
:104550000E94A8166EE77EE0CE0143960E94C42119
:10456000BE016D5E7F4FCE010D960E94BB14BE0151
:10457000695F7F4FCE010D960E94A814BE016F5F48
:104580007F4F0E94A814BC01CE0149960E948F144F
:10459000CE010D960E94F514CE0143960E94F514AB
:1045A000CE0107960E94F514CE014F960E94DC15AD
:1045B000CE0101960E94F514F80186819781892B1E
:1045C00009F441C06CE77EE0CE0101960E94C4214F
:1045D000D80116966D917C916115710511F464E412
:1045E00071E0CE0107960E94521666E77EE0CE018A
:1045F00043960E94C421BE016D5E7F4FCE010D9691
:104600000E94BB14BE01695F7F4FCE010D960E94D0
:10461000A814BE016F5F7F4F0E94A814BC01CE0199
:1046200049960E948F14CE010D960E94F514CE017A
:1046300043960E94F514CE0107960E94F514CE0110
:1046400001960E94F514CE0149960E944B17CE01A7
:1046500049960E94F5140115110509F481C0F8016D
:1046600082819381892B09F47BC062EA7EE08AE62D
:1046700092E00E947309D80112968D919C919C8BB7
:104680008B8B81E08D8B64E471E0CE010D960E94EE
:104690005216EB89FC89309709F44CC06081718116
:1046A000CE0101960E945216BE016F5F7F4FCE0170
:1046B0000D960E948F14CE0101960E94F514EB898D
:1046C000FC8982818370813009F072C060E2CE0182
:1046D0000D960E947C1443E150E063E571E0CE0149
:1046E0000D960E945014EB89FC89309719F1608572
:1046F000718561157105F1F0CE0107960E94521681
:1047000062E471E0CE0101960E945216BE01695F1B
:104710007F4FCE0101960E94A814BC01CE010D96D8
:104720000E948F14CE0101960E94F514CE010796C7
:104730000E94F51449895A896D857E858AE692E042
:104740000E949709CE010D960E94F514CE01439662
:104750000E94C2156FE97EE08AE692E00E945A1C30
:10476000A1960FB6F894DEBF0FBECDBFDF91CF91FB
:104770001F910F91FF9008956DE57EE067CE64E58F
:104780007EE064CE62E47EE061CE61E37EE05ECEF8
:1047900060E27EE05BCE69E07EE058CE6AEF7DE0CD
:1047A00055CE64E471E0CE0101960E94521652CEBD
:1047B000823051F460E2CE010D960E947C1445E0F7
:1047C00050E067E671E08BCF03811481FF24F394FE
:1047D0000115110509F487CF60E2CE010D960E9404
:1047E0007C141A830983FB82BE01635F7F4FCE0175
:1047F00001960E94A816CE0101960E94DC15F801D0
:1048000007811085E5CFCE0149960E944B17CE0156
:1048100049960E94F514A4CFAF92BF92CF92DF9237
:10482000EF92FF920F931F93CF93DF935C017B0175
:104830008A0169018AE090E00E94C237EC01B982E6
:10484000A882FB82EA821D830C831F821E82198646
:104850001886C114D104B9F0F601E280F380E114A6
:10486000F10489F0C70101960E94C2378C019F8331
:104870008E83F60160817181A7010E94A9390E0D16
:104880001F1DF8011082CE01DF91CF911F910F9172
:10489000FF90EF90DF90CF90BF90AF9008952F9250
:1048A0003F924F925F926F927F928F929F92AF92C0
:1048B000BF92CF92DF92EF92FF920F931F93CF930D
:1048C000DF93CDB7DEB7A6970FB6F894DEBF0FBE65
:1048D000CDBF8091F00181110FC064E471E08CEDD7
:1048E00091E00E94521664E471E085EE91E00E942E
:1048F000521681E08093F00180916002813009F0CE
:104900007CC010925B0210925C0210925D021092C9
:104910005E021092600227E0A22E22E0B22E3BE55A
:10492000832E32E0932EC12CD12C760110E0D501DC
:104930004D905D906D907D905D0120E030E0A9018B
:10494000C301B2010E94ED34811136C21F5F8A1487
:104950009B0469F71B30C0F465E170E0611B7109CD
:10496000072E000C880B990B0E94F4349B01AC01BC
:10497000C701B6010E94B53660935B0270935C027A
:1049800080935D0290935E02C0905B02D0905C02C7
:10499000E0905D02F0905E022091D6013091D70147
:1049A0004091D8015091D901C701B6010E94ED3460
:1049B000882319F1C092D601D092D701E092D80194
:1049C000F092D90182E08093AF0362E08EE993E038
:1049D0000E94980D42E061E48EE993E00E94510D3F
:1049E00040915B0250915C0260915D0270915E02A9
:1049F00023E08EE993E00E94701B80E10E94600B2F
:104A0000BC01990F880B990B0E94F43425EE3FEFFF
:104A10004FE95BE30E9453352BE734E14EE750E466
:104A20000E9453352DEC3CEC4CE45EE30E945D3774
:104A300018160CF0CAC181E08093DA018091DA0186
:104A40009091E2019817D9F08093E20181E0809380
:104A5000AF0344E061E48EE993E00E94510D8EE9DA
:104A600093E00E94D90D8091DA016EE07CE0813004
:104A700011F061E07CE08EE993E00E9473098FE021
:104A80000E94600BBC01990F880B990B0E94F434B3
:104A900025EE3FEF4FE95BE30E9453352BE734E10E
:104AA0004EE750E40E9453352DEC3CEC4CE45EE3C1
:104AB0000E945D3718160CF08BC181E08093E301F2
:104AC0008091E3019091EB019817D9F08093EB016D
:104AD00081E08093AF0345E061E48EE993E00E94BA
:104AE000510D8EE993E00E94D90D8091E30167EFAB
:104AF0007BE0813011F06AEE7BE08EE993E00E946A
:104B000073098EE00E94600BBC01990F880B990B12
:104B10000E94F43425EE3FEF4FE95BE30E945335EA
:104B20002BE734E14EE750E40E94533520E030E0BB
:104B300040E05FE30E945D379091400318160CF04F
:104B40004AC1911108C060E0809141030E94F60AB9
:104B500081E0809340038FE00E94600B7C0180E144
:104B60000E94600B8C01B701FF0C880B990B0E940F
:104B7000F43425EE3FEF4FE95BE30E9453352BE71A
:104B800034E14EE750E40E9453352DEC3CEC4CE40C
:104B90005EE30E945D37F0903E0318160CF026C1CC
:104BA000B801110F880B990B0E94F43425EE3FEFEA
:104BB0004FE95BE30E9453352BE734E14EE750E4C5
:104BC0000E9453352DEC3CEC4CE45EE30E945D37D3
:104BD00018160CF00BC1F11008C060E080913F0383
:104BE0000E94F60A81E080933E0386E693E00E94ED
:104BF000EE0F882321F084E090E00E94170C84E5FA
:104C000093E00E94EE0F882351F180911101909161
:104C100012018B30910520F00A978A30910510F42B
:104C20008AE090E0909312018093110180910F012E
:104C3000909110018B30910520F00A978A309105F0
:104C400010F48AE090E09093100180930F010E948D
:104C5000B41766E970E080E090E00E94970B82E470
:104C600093E00E94EE0F882381F1809111019091D1
:104C700012010A968536B9E19B0710F084E699E1A6
:104C80008A30910510F48AE090E0909312018093AD
:104C9000110180910F01909110010A968536E9E18A
:104CA0009E0710F084E699E18A30910510F48AE0BD
:104CB00090E09093100180930F010E94B41766E971
:104CC00070E080E090E00E94970B809165029091E7
:104CD00066020E9464109093FB018093FA01209178
:104CE000FA013091FB018091F8019091F9012817A8
:104CF000390751F16091FA017091FB0124EF31E025
:104D000041E050E080910D0190910E010E94E50C70
:104D100090930E0180930D018091FA019091FB0117
:104D20009093F9018093F8010E94B41780910D01CE
:104D300090910E01909319018093180166E970E03B
:104D400080E090E00E94970BE0916502F09166028E
:104D500084859585248535852330310511F01586A8
:104D60001486009771F08530910509F44AC08630A9
:104D7000910509F449C0039721F490E080E00E9476
:104D8000170C8AE692E00E94F509892B09F404C405
:104D900064E471E0CE0101960E9452160E94A00CBC
:104DA00097FD58C08A30910509F454C0682FCE0190
:104DB00001960E947C14F2CFA3019201C701B601B3
:104DC0000E9449366B017C01C2CD1092DA0136CEC9
:104DD0001092E30175CE992309F4BDCE61E0809174
:104DE00041030E94F60A10924003B5CEFF2009F459
:104DF000FCCE61E080913F030E94F60A10923E03D0
:104E0000F4CE84E090E0BBCF83E090E090930E017D
:104E100080930D012AE030E03093100120930F01C0
:104E200030931201209311012FE02093130144E1EC
:104E300050E060E070E040931401509315016093DE
:104E400016017093170190931901809318010E9425
:104E5000B41797CF67EE7BE08AE692E00E94730971
:104E6000CE0101960E944B172D813E813AA329A3C2
:104E700049815A815CA34BA386E090E00E94C2372F
:104E80009C8B8B8BDC0111961C921E9213961C92AC
:104E90001E92129715961C921E921497E9A1FAA1E0
:104EA000EF2B09F4DCC090E080E0B12CA12C10E0E5
:104EB00000E0EBA1FCA1E00FF11F2081A8014F5FF2
:104EC0005F4F5A8F498F223279F4319720812C35E8
:104ED00019F40115110511F451E0A52629A13AA1F3
:104EE0000217130711F1B3C02B33C1F4ABA1BCA15E
:104EF000298D3A8DA20FB31F2C912B3379F7A11472
:104F0000B10461F70115110599F0319720812C3515
:104F100029F3A1E0B0E0BC8FAB8F0EC02D3011F0B3
:104F20002A30E1F6A114B104C9F61C8E1B8E04C010
:104F300041E050E05C8F4B8F2801481A590A09F470
:104F40007BC0EBA1FCA1E80FF91FF88FEF8B88E085
:104F500090E00E94C2374C01EF89F88DDC01119678
:104F6000FC93EE9313965C924E92129715961C92B8
:104F70001E92149717961C921E92169786E090E048
:104F80000E94C2377C01DC0111961C921E9213967E
:104F90001C921E92129715961C921E921497EF89DE
:104FA000F88DFE8FED8F312C212C18A21F8ED12C65
:104FB000C12C712C612CAD8DBE8D8D91BE8FAD8FAE
:104FC0008C3559F4C114D10409F4FAC06414750481
:104FD00009F4B5C0D12CC12C0CC0823209F0A0C09C
:104FE000C114D10499F7EF8DF8A121E0E227F8A3CD
:104FF000EF8FFFEF6F1A7F0A46145704E0F6D401D3
:105000001596FC92EE921497EB89FC893097A1F0EB
:105010008114910489F00280F381E02D309709F426
:10502000D3C097828682EB89FC89938282828481B5
:1050300095810196958384832B8D3C8D232B11F4D0
:105040001A8F098F898D9A8D0196098D1A8D0F5FA0
:105050001F4F49A15AA14017510708F02ACFAB8929
:10506000BC898D909C908114910409F481C2E090D8
:105070009203F090930310E080E0E114F10409F44E
:105080003DC281115DC211115BC2D4011496ED9134
:10509000FC91309759F0648075806114710431F08F
:1050A000C080D180C114D10409F093C030E020E069
:1050B00050E040E0B7018FEF9FEF0E940C246C019D
:1050C000DC018D919C91009709F0E5C1D7011696FE
:1050D000ED91FC91309709F4A8C100919103011161
:1050E000A4C1C701099511E0C6010E943815D70176
:1050F00012962C911297237013968C9113971496F5
:105100009C916C01213009F0EDC10E949D15F701C1
:1051100014821382F701E284F384812F102FADCF24
:105120006414750461F0803209F054CF4F8D58A19A
:10513000452B09F04FCFC114D10409F04BCFC30167
:10514000821993099EA38DA3892B81F186E090E0BB
:105150000E94C237FC01AF89B88D2A0E3B1E3182F6
:1051600020822DA13EA13383228315821482E11473
:10517000F104E1F0892BD1F0D70112968D919C9129
:1051800013970097D1F0DC011596FC93EE931497DA
:10519000D7011396FC93EE93129714968D919C91E0
:1051A0001597019615969C938E9314972D8C3E8C93
:1051B000EF89F88D2E1A3F0A1CCFED93FC93E8CFB0
:1051C000CC24C394D12C15CFAB89BC898D929C92F1
:1051D0002ACFF601A280B380D70115962C9115979E
:1051E00021704D915C9130E0B501808191810E94E8
:1051F000CA1F892B39F4960150E040E0B70181E0E5
:1052000090E05BCFF601C480D580D70112969C91C7
:105210001297937013962D913C91913009F040C0F4
:10522000C9010E949D15F70114821382C114D10493
:1052300041F430E020E050E040E0B70190E080E051
:105240003CCF89E090E00E94C2375C01DC011196FE
:105250001C921E9213961C921E92129715961C92E7
:105260001E92149716968C9116978C7F8560877F77
:1052700016968C93169718961C921E921797F60105
:105280004281538160817181C5010E94F115B50190
:10529000C7010E949B10D6011496CD90DC90C6CF1A
:1052A000923009F06BC0232BB9F489E090E00E94A2
:1052B000C237FC011182108213821282158214827D
:1052C0008681887F8160877F868310861782D701D9
:1052D0001496FC93EE931397B2E06B16710408F4E6
:1052E000A8CFF40142815381415051094A195B0909
:1052F000D6016D917C91F701838194810E94F11513
:1053000098CFD50116960C9103FD25C0BF89BD32FB
:1053100089F0802F83708130F1F4802F8370813089
:10532000F9F008F44BC0823031F50860D5011696CB
:105330000C9321C0F70125812170D5014D915C911D
:10534000F601628173816150710930E0C2010E94EF
:10535000CA1F019711F3D5011796AD90BC9023C0D9
:10536000BF89BD3259F1F60142815381632D722DFF
:10537000C5010E94F115F601C480D580C114D10485
:1053800009F43FC0D60114966D907C901597F701F3
:10539000A380B4803C9011962C90432C522CF201A7
:1053A00021912F012F8BA114B10409F0AACF9601EE
:1053B00050E040E0B70182E090E07FCE61147104DC
:1053C00039F430E020E0A501B70183E090E075CE2C
:1053D000D30112964D915C9113976D917C91C5010B
:1053E0000E94F115892B31F49301A501B70185E0E5
:1053F00090E063CEF601C480D580C114D10409F0D9
:10540000BACFF701438154814115510509F411CFF9
:10541000DA0116968C918C70843019F430E020E01B
:10542000D3CFFA0147815085EFCF009198031091B7
:105430009903C7010E9490215C018091940390918F
:105440009503101611066CF00E94CB15C5010E9441
:10545000B115A12CB12CA0929403B092950300E059
:1054600042CEFC0121E030E00097A9F3428553854C
:105470004115510561F4A286B3865C01021713073A
:1054800054F7FC01A284B3840E94B115E4CF2F5FCE
:105490003F4FFA01EBCF00E002970CF425CEE091EC
:1054A0009C03F0919D03309749F080919103811105
:1054B00005C0C601099510E001E016CEA0909A0340
:1054C000B0909B03C6010E940621A501BC018091FA
:1054D0009603909197030E94591590939703809398
:1054E0009603EACFC114D10409F414CEC6010E9478
:1054F0008A15D6011796CD90DC90F4CF111120C0FB
:1055000081111EC0D4011496ED91FC91208131814E
:1055100050E040E070E060E081E090E00E940C2408
:105520008C01E0919C03F0919D03309769F080918C
:105530009103811109C0C8010995C8010E9438155D
:10554000F401868097808FCDE0909A03F0909B03C2
:10555000C8010E940621A701BC0180919603909189
:1055600097030E9459159093970380939603E5CF74
:105570002B893C892115310559F0D9018D919C91D8
:10558000009711F00E9410158B899C890E945E384B
:10559000CE0101960E94F514009194031091950399
:1055A0000115110509F465C3F8018285938590936F
:1055B0009503809394031A8309831B82C8010E9478
:1055C00090219A838983C8010E94B1158B818A8BAF
:1055D00089819A81998B888B1A821982CE010196D2
:1055E0000E94C2156AE873E0CE0140960E94D02066
:1055F000882309F4BEC060EE7BE0CE0101960E94D4
:10560000C421AE014F5F5F4FBE01605F7F4FCE018F
:1056100007960E948C20CE0101960E94F51468ED39
:105620007BE0CE0101960E94C421AE014F5F5F4F27
:10563000BE01605F7F4FCE010A960E948C20CE0192
:1056400001960E94F51463ED7BE0CE0101960E9465
:10565000C421AE014F5F5F4FBE01605F7F4FCE013F
:105660000D960E948C20CE0101960E94F514BE0179
:10567000695F7F4FCE0101960E948D16CE01019683
:105680000E9445142B013C01CE0101960E94F514A5
:10569000BE01665F7F4FCE0101960E948D16CE013E
:1056A00001960E9445144B015C01CE0101960E94B7
:1056B000F514BE01635F7F4FCE0101960E948D16E7
:1056C000CE0101960E9445146B8B7C8B8D8B9E8B3B
:1056D000CE0101960E94F5148AE0C82ED12CE12C4F
:1056E000F12CC301B201A70196010E949D37B901B7
:1056F00024E639E14AE050E080910F0190911001D9
:105700000E94D20C9093100180930F01C501B40147
:10571000A70196010E949D37B90124E639E14AE0CC
:1057200050E080911101909112010E94D20C90934F
:1057300012018093110124EF31E041E050E06B89C8
:105740007C8980910D0190910E010E94D20C909362
:105750000E0180930D010E94B417CE010D960E9498
:10576000DC15CE010A960E94DC15CE0107960E9438
:10577000DC156DE873E0CE0140960E94D0208823AE
:10578000E9F16DEC7BE0CE0101960E94C421AE01EF
:105790004F5F5F4FBE01605F7F4FCE0107960E9453
:1057A0008C20CE0101960E94F514BE01695F7F4FE7
:1057B000CE0101960E948D16CE0101960E944514DD
:1057C0006B01CE0101960E94F51428E833E150E008
:1057D00040E0B60190E080E00E94D20C009731F0EA
:1057E000BC01990F880B990B0E94970B84E090E005
:1057F0000E94170CCE0107960E94DC156EE773E03D
:10580000CE0140960E94D020882309F465C0C09044
:105810005B02D0905C02E0905D02F0905E02A0908E
:105820006302B090640267E772E08AE692E00E9449
:105830005A1C6AE672E08AE692E00E94730980913F
:105840000F01909110011AE0189FB001199F700D7F
:1058500011248AE692E00E94AE176AE572E08AE6B9
:1058600092E00E9473098091110190911201189F9A
:10587000B001199F700D11248AE692E00E94AE17C4
:105880006DE472E08AE692E00E94730960910D0176
:1058900070910E018AE692E00E94AE1762E472E017
:1058A0008AE692E00E947309B5018AE692E00E94BE
:1058B000AE1765E372E08AE692E00E94730923E086
:1058C000B701A6018AE692E00E94701B63E372E0D2
:1058D0008AE692E00E945A1C6BE773E0CE01409684
:1058E0000E94D020882309F1C0905B02D0905C0216
:1058F000E0905D02F0905E0268E872E08AE692E075
:105900000E945A1C6BE772E08AE692E00E947309DB
:1059100023E0B701A6018AE692E00E94701B69E7C6
:1059200072E08AE692E00E945A1C68E773E0CE01BA
:1059300040960E94D020882309F4C0C061E67BE035
:105940008AE692E00E945A1C68E17BE08AE692E0D7
:105950000E945A1C6FEC7AE08AE692E00E945A1C80
:1059600066E87AE08AE692E00E945A1C6DE37AE0EB
:105970008AE692E00E945A1C64EF79E08AE692E09F
:105980000E945A1C6BEA79E08AE692E00E945A1C57
:1059900062E679E08AE692E00E945A1C69E179E0C9
:1059A0008AE692E00E945A1C60ED78E08AE692E076
:1059B0000E945A1C67E878E08AE692E00E945A1C2E
:1059C0006EE378E08AE692E00E945A1C65EF77E089
:1059D0008AE692E00E945A1C6CEA77E08AE692E03E
:1059E0000E945A1C63E677E08AE692E00E945A1C05
:1059F0006AE177E08AE692E00E945A1C61ED76E067
:105A00008AE692E00E945A1C68E876E08AE692E014
:105A10000E945A1C6FE376E08AE692E00E945A1CCC
:105A200066EF75E08AE692E00E945A1C6DEA75E026
:105A30008AE692E00E945A1C64E675E08AE692E0EB
:105A40000E945A1C6BE175E08AE692E00E945A1CA3
:105A500062ED74E08AE692E00E945A1C69E874E004
:105A60008AE692E00E945A1C60E474E08AE692E0C2
:105A70000E945A1C67EF73E08AE692E00E945A1C6B
:105A80006EEA73E08AE692E00E945A1C65E673E0D3
:105A90008AE692E00E945A1C6CE173E08AE692E08A
:105AA0000E945A1C63ED72E08AE692E00E945A1C42
:105AB0006AE872E08AE692E00E945A1C67E873E0A6
:105AC000CE0140960E94D020882309F442C061ECA8
:105AD0007BE0CE0101960E94C421AE014F5F5F4F73
